{
  "_format": "hh-sol-artifact-1",
  "contractName": "StakingVault",
  "sourceName": "contracts/StakingVault.sol",
  "abi": [
    {
      "inputs": [
        {
          "internalType": "address",
          "name": "_stakingToken",
          "type": "address"
        }
      ],
      "stateMutability": "nonpayable",
      "type": "constructor"
    },
    {
      "inputs": [],
      "name": "ReentrancyGuardReentrantCall",
      "type": "error"
    },
    {
      "anonymous": false,
      "inputs": [
        {
          "indexed": true,
          "internalType": "address",
          "name": "user",
          "type": "address"
        },
        {
          "indexed": false,
          "internalType": "uint256",
          "name": "amount",
          "type": "uint256"
        },
        {
          "indexed": false,
          "internalType": "uint256",
          "name": "unlockTime",
          "type": "uint256"
        }
      ],
      "name": "Staked",
      "type": "event"
    },
    {
      "anonymous": false,
      "inputs": [
        {
          "indexed": true,
          "internalType": "address",
          "name": "user",
          "type": "address"
        },
        {
          "indexed": false,
          "internalType": "uint256",
          "name": "amount",
          "type": "uint256"
        },
        {
          "indexed": false,
          "internalType": "uint256",
          "name": "timestamp",
          "type": "uint256"
        }
      ],
      "name": "Unstaked",
      "type": "event"
    },
    {
      "inputs": [],
      "name": "LOCK_DURATION",
      "outputs": [
        {
          "internalType": "uint256",
          "name": "",
          "type": "uint256"
        }
      ],
      "stateMutability": "view",
      "type": "function"
    },
    {
      "inputs": [
        {
          "internalType": "address",
          "name": "user",
          "type": "address"
        }
      ],
      "name": "canUnstake",
      "outputs": [
        {
          "internalType": "bool",
          "name": "",
          "type": "bool"
        }
      ],
      "stateMutability": "view",
      "type": "function"
    },
    {
      "inputs": [
        {
          "internalType": "address",
          "name": "user",
          "type": "address"
        }
      ],
      "name": "executeUnstake",
      "outputs": [],
      "stateMutability": "nonpayable",
      "type": "function"
    },
    {
      "inputs": [
        {
          "internalType": "address",
          "name": "user",
          "type": "address"
        }
      ],
      "name": "getStake",
      "outputs": [
        {
          "components": [
            {
              "internalType": "uint256",
              "name": "amount",
              "type": "uint256"
            },
            {
              "internalType": "uint256",
              "name": "unlockTime",
              "type": "uint256"
            },
            {
              "internalType": "bool",
              "name": "active",
              "type": "bool"
            }
          ],
          "internalType": "struct StakingVault.Stake",
          "name": "",
          "type": "tuple"
        }
      ],
      "stateMutability": "view",
      "type": "function"
    },
    {
      "inputs": [
        {
          "internalType": "uint256",
          "name": "amount",
          "type": "uint256"
        }
      ],
      "name": "stake",
      "outputs": [],
      "stateMutability": "nonpayable",
      "type": "function"
    },
    {
      "inputs": [
        {
          "internalType": "address",
          "name": "",
          "type": "address"
        }
      ],
      "name": "stakes",
      "outputs": [
        {
          "internalType": "uint256",
          "name": "amount",
          "type": "uint256"
        },
        {
          "internalType": "uint256",
          "name": "unlockTime",
          "type": "uint256"
        },
        {
          "internalType": "bool",
          "name": "active",
          "type": "bool"
        }
      ],
      "stateMutability": "view",
      "type": "function"
    },
    {
      "inputs": [],
      "name": "stakingToken",
      "outputs": [
        {
          "internalType": "contract IERC20",
          "name": "",
          "type": "address"
        }
      ],
      "stateMutability": "view",
      "type": "function"
    },
    {
      "inputs": [],
      "name": "unstake",
      "outputs": [],
      "stateMutability": "nonpayable",
      "type": "function"
    }
  ],
  "bytecode": "0x608060405234801561001057600080fd5b506040516108b03803806108b083398101604081905261002f91610059565b6001600081905580546001600160a01b0319166001600160a01b0392909216919091179055610089565b60006020828403121561006b57600080fd5b81516001600160a01b038116811461008257600080fd5b9392505050565b610818806100986000396000f3fe608060405234801561001057600080fd5b50600436106100885760003560e01c806372f702f31161005b57806372f702f3146101135780637a7664601461013e57806385f4498b14610175578063a694fc3a1461019857600080fd5b806302b999d61461008d57806316934fc4146100a25780632def6620146100f5578063485d3834146100fd575b600080fd5b6100a061009b366004610757565b6101ab565b005b6100d36100b0366004610757565b600260208190526000918252604090912080546001820154919092015460ff1683565b6040805193845260208401929092521515908201526060015b60405180910390f35b6100a0610337565b610105601e81565b6040519081526020016100ec565b600154610126906001600160a01b031681565b6040516001600160a01b0390911681526020016100ec565b61015161014c366004610757565b6104a9565b604080518251815260208084015190820152918101511515908201526060016100ec565b610188610183366004610757565b610516565b60405190151581526020016100ec565b6100a06101a6366004610780565b610571565b6101b361072d565b6001600160a01b03811660009081526002602081905260409091209081015460ff166102185760405162461bcd60e51b815260206004820152600f60248201526e4e6f20616374697665207374616b6560881b60448201526064015b60405180910390fd5b806001015442101561025b5760405162461bcd60e51b815260206004820152600c60248201526b14dd1a5b1b081b1bd8dad95960a21b604482015260640161020f565b805460028201805460ff191690556000825560015460405163a9059cbb60e01b81526001600160a01b038581166004830152602482018490529091169063a9059cbb906044016020604051808303816000875af11580156102c0573d6000803e3d6000fd5b505050506040513d601f19601f820116820180604052508101906102e49190610799565b50604080518281524260208201526001600160a01b038516917f7fc4727e062e336010f2c282598ef5f14facb3de68cf8195c2f23e1454b2b74e910160405180910390a250506103346001600055565b50565b61033f61072d565b3360009081526002602081905260409091209081015460ff166103965760405162461bcd60e51b815260206004820152600f60248201526e4e6f20616374697665207374616b6560881b604482015260640161020f565b80600101544210156103d95760405162461bcd60e51b815260206004820152600c60248201526b14dd1a5b1b081b1bd8dad95960a21b604482015260640161020f565b805460028201805460ff191690556000825560015460405163a9059cbb60e01b8152336004820152602481018390526001600160a01b039091169063a9059cbb906044016020604051808303816000875af115801561043c573d6000803e3d6000fd5b505050506040513d601f19601f820116820180604052508101906104609190610799565b506040805182815242602082015233917f7fc4727e062e336010f2c282598ef5f14facb3de68cf8195c2f23e1454b2b74e910160405180910390a250506104a76001600055565b565b6104cf604051806060016040528060008152602001600081526020016000151581525090565b506001600160a01b03166000908152600260208181526040928390208351606081018552815481526001820154928101929092529091015460ff1615159181019190915290565b6001600160a01b03811660009081526002602081815260408084208151606081018352815481526001820154938101939093529092015460ff1615801592820183905290919061056a575080602001514210155b9392505050565b61057961072d565b600081116105ba5760405162461bcd60e51b815260206004820152600e60248201526d043616e6e6f74207374616b6520360941b604482015260640161020f565b336000908152600260208190526040909120015460ff16156106105760405162461bcd60e51b815260206004820152600f60248201526e416c7265616479207374616b696e6760881b604482015260640161020f565b6001546040516323b872dd60e01b8152336004820152306024820152604481018390526001600160a01b03909116906323b872dd906064016020604051808303816000875af1158015610667573d6000803e3d6000fd5b505050506040513d601f19601f8201168201806040525081019061068b9190610799565b506040518060600160405280828152602001601e426106aa91906107bb565b81526001602091820181905233600081815260028085526040918290208651815586860151948101859055958201519501805460ff191695151595909517909455835185815292830191909152917f1449c6dd7851abc30abf37f57715f492010519147cc2652fbc38202c18a6ee90910160405180910390a26103346001600055565b60026000540361075057604051633ee5aeb560e01b815260040160405180910390fd5b6002600055565b60006020828403121561076957600080fd5b81356001600160a01b038116811461056a57600080fd5b60006020828403121561079257600080fd5b5035919050565b6000602082840312156107ab57600080fd5b8151801515811461056a57600080fd5b808201808211156107dc57634e487b7160e01b600052601160045260246000fd5b9291505056fea2646970667358221220ee590da83b8790dfef014a332523c1d203e6adce7b8c46d0406d9adb1065686364736f6c63430008180033",
  "linkReferences": {},
  "deployedLinkReferences": {}
}