{
  "_format": "hh-sol-artifact-1",
  "contractName": "UnstakeExecutor",
  "sourceName": "contracts/UnstakeExecutor.sol",
  "abi": [
    {
      "inputs": [
        {
          "internalType": "address",
          "name": "_vault",
          "type": "address"
        }
      ],
      "stateMutability": "nonpayable",
      "type": "constructor"
    },
    {
      "anonymous": false,
      "inputs": [
        {
          "indexed": true,
          "internalType": "address",
          "name": "user",
          "type": "address"
        },
        {
          "indexed": false,
          "internalType": "uint256",
          "name": "timestamp",
          "type": "uint256"
        }
      ],
      "name": "UnstakeExecuted",
      "type": "event"
    },
    {
      "inputs": [
        {
          "internalType": "address[]",
          "name": "users",
          "type": "address[]"
        }
      ],
      "name": "batchUnstake",
      "outputs": [],
      "stateMutability": "nonpayable",
      "type": "function"
    },
    {
      "inputs": [
        {
          "internalType": "address",
          "name": "user",
          "type": "address"
        }
      ],
      "name": "executeUnstake",
      "outputs": [],
      "stateMutability": "nonpayable",
      "type": "function"
    },
    {
      "inputs": [],
      "name": "vault",
      "outputs": [
        {
          "internalType": "contract IStakingVault",
          "name": "",
          "type": "address"
        }
      ],
      "stateMutability": "view",
      "type": "function"
    }
  ],
  "bytecode": "0x608060405234801561001057600080fd5b5060405161055338038061055383398101604081905261002f91610054565b600080546001600160a01b0319166001600160a01b0392909216919091179055610084565b60006020828403121561006657600080fd5b81516001600160a01b038116811461007d57600080fd5b9392505050565b6104c0806100936000396000f3fe608060405234801561001057600080fd5b50600436106100415760003560e01c806302b999d614610046578063d9cbd3281461005b578063fbfa77cf1461006e575b600080fd5b6100596100543660046103ad565b61009d565b005b6100596100693660046103dd565b6101f5565b600054610081906001600160a01b031681565b6040516001600160a01b03909116815260200160405180910390f35b6000546040516385f4498b60e01b81526001600160a01b038381166004830152909116906385f4498b90602401602060405180830381865afa1580156100e7573d6000803e3d6000fd5b505050506040513d601f19601f8201168201806040525081019061010b9190610452565b6101505760405162461bcd60e51b815260206004820152601260248201527110d85b9b9bdd081d5b9cdd185ad9481e595d60721b604482015260640160405180910390fd5b60005460405163015ccceb60e11b81526001600160a01b038381166004830152909116906302b999d690602401600060405180830381600087803b15801561019757600080fd5b505af11580156101ab573d6000803e3d6000fd5b50505050806001600160a01b03167fe3e01bae44eb85a30bd61c3742b60e379576ff5070a142675f575f53d5bbc2e4426040516101ea91815260200190565b60405180910390a250565b60005b818110156103a8576000546001600160a01b03166385f4498b84848481811061022357610223610474565b905060200201602081019061023891906103ad565b6040516001600160e01b031960e084901b1681526001600160a01b039091166004820152602401602060405180830381865afa15801561027c573d6000803e3d6000fd5b505050506040513d601f19601f820116820180604052508101906102a09190610452565b156103a0576000546001600160a01b03166302b999d68484848181106102c8576102c8610474565b90506020020160208101906102dd91906103ad565b6040516001600160e01b031960e084901b1681526001600160a01b039091166004820152602401600060405180830381600087803b15801561031e57600080fd5b505af1158015610332573d6000803e3d6000fd5b5050505082828281811061034857610348610474565b905060200201602081019061035d91906103ad565b6001600160a01b03167fe3e01bae44eb85a30bd61c3742b60e379576ff5070a142675f575f53d5bbc2e44260405161039791815260200190565b60405180910390a25b6001016101f8565b505050565b6000602082840312156103bf57600080fd5b81356001600160a01b03811681146103d657600080fd5b9392505050565b600080602083850312156103f057600080fd5b823567ffffffffffffffff8082111561040857600080fd5b818501915085601f83011261041c57600080fd5b81358181111561042b57600080fd5b8660208260051b850101111561044057600080fd5b60209290920196919550909350505050565b60006020828403121561046457600080fd5b815180151581146103d657600080fd5b634e487b7160e01b600052603260045260246000fdfea26469706673582212207538719d2147157e30cb2fa856e0584bafeea4fc7232dc8ecc9b8267938cf01f64736f6c63430008180033",
  "linkReferences": {},
  "deployedLinkReferences": {}
}